{
  "contractName": "MoovItTest",
  "abi": [
    {
      "inputs": [
        {
          "internalType": "string",
          "name": "_name",
          "type": "string"
        },
        {
          "internalType": "string",
          "name": "_symbol",
          "type": "string"
        },
        {
          "internalType": "uint8",
          "name": "_decimals",
          "type": "uint8"
        },
        {
          "internalType": "uint256",
          "name": "_cap",
          "type": "uint256"
        }
      ],
      "payable": false,
      "stateMutability": "nonpayable",
      "type": "constructor"
    },
    {
      "anonymous": false,
      "inputs": [
        {
          "indexed": true,
          "internalType": "address",
          "name": "owner",
          "type": "address"
        },
        {
          "indexed": true,
          "internalType": "address",
          "name": "spender",
          "type": "address"
        },
        {
          "indexed": false,
          "internalType": "uint256",
          "name": "value",
          "type": "uint256"
        }
      ],
      "name": "Approval",
      "type": "event"
    },
    {
      "anonymous": false,
      "inputs": [
        {
          "indexed": true,
          "internalType": "address",
          "name": "account",
          "type": "address"
        }
      ],
      "name": "MinterAdded",
      "type": "event"
    },
    {
      "anonymous": false,
      "inputs": [
        {
          "indexed": true,
          "internalType": "address",
          "name": "account",
          "type": "address"
        }
      ],
      "name": "MinterRemoved",
      "type": "event"
    },
    {
      "anonymous": false,
      "inputs": [
        {
          "indexed": true,
          "internalType": "address",
          "name": "from",
          "type": "address"
        },
        {
          "indexed": true,
          "internalType": "address",
          "name": "to",
          "type": "address"
        },
        {
          "indexed": false,
          "internalType": "uint256",
          "name": "value",
          "type": "uint256"
        }
      ],
      "name": "Transfer",
      "type": "event"
    },
    {
      "constant": true,
      "inputs": [
        {
          "internalType": "address",
          "name": "",
          "type": "address"
        }
      ],
      "name": "Moovrs",
      "outputs": [
        {
          "internalType": "uint256",
          "name": "totalKmWalked",
          "type": "uint256"
        },
        {
          "internalType": "uint256",
          "name": "kmWalked",
          "type": "uint256"
        }
      ],
      "payable": false,
      "stateMutability": "view",
      "type": "function"
    },
    {
      "constant": false,
      "inputs": [
        {
          "internalType": "address",
          "name": "account",
          "type": "address"
        }
      ],
      "name": "addMinter",
      "outputs": [],
      "payable": false,
      "stateMutability": "nonpayable",
      "type": "function"
    },
    {
      "constant": true,
      "inputs": [
        {
          "internalType": "address",
          "name": "owner",
          "type": "address"
        },
        {
          "internalType": "address",
          "name": "spender",
          "type": "address"
        }
      ],
      "name": "allowance",
      "outputs": [
        {
          "internalType": "uint256",
          "name": "",
          "type": "uint256"
        }
      ],
      "payable": false,
      "stateMutability": "view",
      "type": "function"
    },
    {
      "constant": false,
      "inputs": [
        {
          "internalType": "address",
          "name": "spender",
          "type": "address"
        },
        {
          "internalType": "uint256",
          "name": "amount",
          "type": "uint256"
        }
      ],
      "name": "approve",
      "outputs": [
        {
          "internalType": "bool",
          "name": "",
          "type": "bool"
        }
      ],
      "payable": false,
      "stateMutability": "nonpayable",
      "type": "function"
    },
    {
      "constant": true,
      "inputs": [
        {
          "internalType": "address",
          "name": "account",
          "type": "address"
        }
      ],
      "name": "balanceOf",
      "outputs": [
        {
          "internalType": "uint256",
          "name": "",
          "type": "uint256"
        }
      ],
      "payable": false,
      "stateMutability": "view",
      "type": "function"
    },
    {
      "constant": true,
      "inputs": [],
      "name": "cap",
      "outputs": [
        {
          "internalType": "uint256",
          "name": "",
          "type": "uint256"
        }
      ],
      "payable": false,
      "stateMutability": "view",
      "type": "function"
    },
    {
      "constant": false,
      "inputs": [
        {
          "internalType": "address",
          "name": "spender",
          "type": "address"
        },
        {
          "internalType": "uint256",
          "name": "subtractedValue",
          "type": "uint256"
        }
      ],
      "name": "decreaseAllowance",
      "outputs": [
        {
          "internalType": "bool",
          "name": "",
          "type": "bool"
        }
      ],
      "payable": false,
      "stateMutability": "nonpayable",
      "type": "function"
    },
    {
      "constant": false,
      "inputs": [
        {
          "internalType": "address",
          "name": "spender",
          "type": "address"
        },
        {
          "internalType": "uint256",
          "name": "addedValue",
          "type": "uint256"
        }
      ],
      "name": "increaseAllowance",
      "outputs": [
        {
          "internalType": "bool",
          "name": "",
          "type": "bool"
        }
      ],
      "payable": false,
      "stateMutability": "nonpayable",
      "type": "function"
    },
    {
      "constant": true,
      "inputs": [
        {
          "internalType": "address",
          "name": "account",
          "type": "address"
        }
      ],
      "name": "isMinter",
      "outputs": [
        {
          "internalType": "bool",
          "name": "",
          "type": "bool"
        }
      ],
      "payable": false,
      "stateMutability": "view",
      "type": "function"
    },
    {
      "constant": false,
      "inputs": [
        {
          "internalType": "address",
          "name": "account",
          "type": "address"
        },
        {
          "internalType": "uint256",
          "name": "amount",
          "type": "uint256"
        }
      ],
      "name": "mint",
      "outputs": [
        {
          "internalType": "bool",
          "name": "",
          "type": "bool"
        }
      ],
      "payable": false,
      "stateMutability": "nonpayable",
      "type": "function"
    },
    {
      "constant": false,
      "inputs": [],
      "name": "renounceMinter",
      "outputs": [],
      "payable": false,
      "stateMutability": "nonpayable",
      "type": "function"
    },
    {
      "constant": true,
      "inputs": [],
      "name": "totalSupply",
      "outputs": [
        {
          "internalType": "uint256",
          "name": "",
          "type": "uint256"
        }
      ],
      "payable": false,
      "stateMutability": "view",
      "type": "function"
    },
    {
      "constant": false,
      "inputs": [
        {
          "internalType": "address",
          "name": "recipient",
          "type": "address"
        },
        {
          "internalType": "uint256",
          "name": "amount",
          "type": "uint256"
        }
      ],
      "name": "transfer",
      "outputs": [
        {
          "internalType": "bool",
          "name": "",
          "type": "bool"
        }
      ],
      "payable": false,
      "stateMutability": "nonpayable",
      "type": "function"
    },
    {
      "constant": false,
      "inputs": [
        {
          "internalType": "address",
          "name": "sender",
          "type": "address"
        },
        {
          "internalType": "address",
          "name": "recipient",
          "type": "address"
        },
        {
          "internalType": "uint256",
          "name": "amount",
          "type": "uint256"
        }
      ],
      "name": "transferFrom",
      "outputs": [
        {
          "internalType": "bool",
          "name": "",
          "type": "bool"
        }
      ],
      "payable": false,
      "stateMutability": "nonpayable",
      "type": "function"
    },
    {
      "constant": false,
      "inputs": [
        {
          "internalType": "address",
          "name": "creator",
          "type": "address"
        }
      ],
      "name": "createMoovr",
      "outputs": [],
      "payable": false,
      "stateMutability": "nonpayable",
      "type": "function"
    },
    {
      "constant": true,
      "inputs": [],
      "name": "getMoovr",
      "outputs": [
        {
          "internalType": "uint256",
          "name": "totalKmWalked",
          "type": "uint256"
        },
        {
          "components": [
            {
              "internalType": "uint256",
              "name": "totalKmWalked",
              "type": "uint256"
            },
            {
              "internalType": "uint256",
              "name": "kmWalked",
              "type": "uint256"
            }
          ],
          "internalType": "struct MoovItTest.Moovr",
          "name": "",
          "type": "tuple"
        }
      ],
      "payable": false,
      "stateMutability": "view",
      "type": "function"
    },
    {
      "constant": false,
      "inputs": [
        {
          "internalType": "address",
          "name": "user",
          "type": "address"
        }
      ],
      "name": "getTotalKm",
      "outputs": [],
      "payable": false,
      "stateMutability": "nonpayable",
      "type": "function"
    },
    {
      "constant": false,
      "inputs": [],
      "name": "setTotalKm",
      "outputs": [
        {
          "internalType": "uint256",
          "name": "totalKmWalked",
          "type": "uint256"
        }
      ],
      "payable": false,
      "stateMutability": "nonpayable",
      "type": "function"
    },
    {
      "constant": false,
      "inputs": [
        {
          "internalType": "uint256",
          "name": "inputKmWalked",
          "type": "uint256"
        }
      ],
      "name": "getKm",
      "outputs": [],
      "payable": false,
      "stateMutability": "nonpayable",
      "type": "function"
    },
    {
      "constant": false,
      "inputs": [
        {
          "internalType": "address",
          "name": "creator",
          "type": "address"
        }
      ],
      "name": "deleteMoovr",
      "outputs": [],
      "payable": false,
      "stateMutability": "nonpayable",
      "type": "function"
    },
    {
      "constant": true,
      "inputs": [
        {
          "internalType": "uint256",
          "name": "index",
          "type": "uint256"
        }
      ],
      "name": "getCreators",
      "outputs": [
        {
          "internalType": "address",
          "name": "",
          "type": "address"
        }
      ],
      "payable": false,
      "stateMutability": "view",
      "type": "function"
    }
  ],
  "bytecode": "0x60806040523480156200001157600080fd5b50604051620017133803806200171383398101604081905262000034916200021c565b806200005b6200004c6001600160e01b03620000a716565b6001600160e01b03620000ab16565b60008111620000875760405162461bcd60e51b81526004016200007e9062000371565b60405180910390fd5b6004555050600780546001600160a01b0319163317905550620004609050565b3390565b620000c6816003620000fd60201b62000b011790919060201c565b6040516001600160a01b038216907f6ae172837ea30b801fbfcdd4108aa1d5bf8ff775444fd70256b44e6bf3dfc3f690600090a250565b6200011282826001600160e01b036200015716565b15620001325760405162461bcd60e51b81526004016200007e9062000383565b6001600160a01b0316600090815260209190915260409020805460ff19166001179055565b60006001600160a01b038216620001825760405162461bcd60e51b81526004016200007e9062000395565b506001600160a01b03811660009081526020839052604090205460ff165b92915050565b600082601f830112620001b857600080fd5b8151620001cf620001c982620003ce565b620003a7565b91508082526020830160208301858383011115620001ec57600080fd5b620001f983828462000408565b50505092915050565b8051620001a0816200043b565b8051620001a08162000455565b600080600080608085870312156200023357600080fd5b84516001600160401b038111156200024a57600080fd5b6200025887828801620001a6565b94505060208501516001600160401b038111156200027557600080fd5b6200028387828801620001a6565b935050604062000296878288016200020f565b9250506060620002a98782880162000202565b91505092959194509250565b6000620002c4601583620003f6565b7f45524332304361707065643a2063617020697320300000000000000000000000815260200192915050565b6000620002ff601f83620003f6565b7f526f6c65733a206163636f756e7420616c72656164792068617320726f6c6500815260200192915050565b60006200033a602283620003f6565b7f526f6c65733a206163636f756e7420697320746865207a65726f206164647265815261737360f01b602082015260400192915050565b60208082528101620001a081620002b5565b60208082528101620001a081620002f0565b60208082528101620001a0816200032b565b6040518181016001600160401b0381118282101715620003c657600080fd5b604052919050565b60006001600160401b03821115620003e557600080fd5b506020601f91909101601f19160190565b90815260200190565b90565b60ff1690565b60005b83811015620004255781810151838201526020016200040b565b8381111562000435576000848401525b50505050565b6200044681620003ff565b81146200045257600080fd5b50565b620004468162000402565b6112a380620004706000396000f3fe608060405234801561001057600080fd5b50600436106101375760003560e01c806340c10f19116100b8578063986502751161007c5780639865027514610286578063a08178ea1461028e578063a457c2d714610296578063a9059cbb146102a9578063aa271e1a146102bc578063dd62ed3e146102cf57610137565b806340c10f1914610217578063651e47c01461022a57806370a0823114610240578063891be97414610253578063983b2d561461027357610137565b80632559a11c116100ff5780632559a11c146101b5578063355274ea146101c85780633704fb89146101d057806339509351146101f15780633dc9b4741461020457610137565b8063095ea7b31461013c57806318160ddd14610165578063232148651461017a57806323b872dd1461018f57806323c46cdb146101a2575b600080fd5b61014f61014a366004610c72565b6102e2565b60405161015c919061105b565b60405180910390f35b61016d610300565b60405161015c919061112a565b61018d610188366004610bc5565b610306565b005b61014f61019d366004610c25565b610309565b61018d6101b0366004610bc5565b610397565b61018d6101c3366004610ca2565b6103ce565b61016d6103fa565b6101e36101de366004610bc5565b610400565b60405161015c929190611153565b61014f6101ff366004610c72565b610419565b61018d610212366004610bc5565b61046d565b61014f610225366004610c72565b610542565b61023261057e565b60405161015c929190611138565b61016d61024e366004610bc5565b61058c565b610266610261366004610ca2565b6105a7565b60405161015c919061104d565b61018d610281366004610bc5565b6105d1565b61018d610601565b61016d610613565b61014f6102a4366004610c72565b610626565b61014f6102b7366004610c72565b610694565b61014f6102ca366004610bc5565b6106a8565b61016d6102dd366004610beb565b6106bb565b60006102f66102ef6106e6565b84846106ea565b5060015b92915050565b60025490565b50565b600061031684848461079e565b61038c846103226106e6565b61038785604051806060016040528060288152602001611214602891396001600160a01b038a166000908152600160205260408120906103606106e6565b6001600160a01b03168152602081019190915260400160002054919063ffffffff6108b416565b6106ea565b5060015b9392505050565b6007546001600160a01b031633146103ae57600080fd5b6001600160a01b0316600090815260056020526040812081815560010155565b3360008181526005602052604090206001018290556103ed81836108e0565b6103f5610613565b505050565b60045490565b6005602052600090815260409020805460019091015482565b60006102f66104266106e6565b8461038785600160006104376106e6565b6001600160a01b03908116825260208083019390935260409182016000908120918c16815292529020549063ffffffff61092316565b5033610477610b95565b6000815261048481610948565b600680546001810182556000919091527ff652222313e28459528d920b65115c16c04f3efc82aaedc97be59f3f377c0d3f0180546001600160a01b0319163317905580516020828101516040516104dc939201611027565b60408051601f1981840301815282825280516020918201206001600160a01b038616600090815260058352929092208054600190910154929361052193919201611027565b604051602081830303815290604052805190602001201461053e57fe5b5050565b600061054f6102ca6106e6565b6105745760405162461bcd60e51b815260040161056b906110ba565b60405180910390fd5b6102f683836108e0565b6000610588610b95565b9091565b6001600160a01b031660009081526020819052604090205490565b6000600682815481106105b657fe5b6000918252602090912001546001600160a01b031692915050565b6105dc6102ca6106e6565b6105f85760405162461bcd60e51b815260040161056b906110ba565b61030681610969565b61061161060c6106e6565b6109b1565b565b3360009081526005602052604090205490565b60006102f66106336106e6565b846103878560405180606001604052806025815260200161123c602591396001600061065d6106e6565b6001600160a01b03908116825260208083019390935260409182016000908120918d1681529252902054919063ffffffff6108b416565b60006102f66106a16106e6565b848461079e565b60006102fa60038363ffffffff6109f916565b6001600160a01b03918216600090815260016020908152604080832093909416825291909152205490565b3390565b6001600160a01b0383166107105760405162461bcd60e51b815260040161056b9061110a565b6001600160a01b0382166107365760405162461bcd60e51b815260040161056b9061109a565b6001600160a01b0380841660008181526001602090815260408083209487168084529490915290819020849055517f8c5be1e5ebec7d5bd14f71427d1e84f3dd0314c0f7b2291e5b200ac8c7c3b9259061079190859061112a565b60405180910390a3505050565b6001600160a01b0383166107c45760405162461bcd60e51b815260040161056b906110ea565b6001600160a01b0382166107ea5760405162461bcd60e51b815260040161056b9061107a565b61082d816040518060600160405280602681526020016111ee602691396001600160a01b038616600090815260208190526040902054919063ffffffff6108b416565b6001600160a01b038085166000908152602081905260408082209390935590841681522054610862908263ffffffff61092316565b6001600160a01b0380841660008181526020819052604090819020939093559151908516907fddf252ad1be2c89b69c2b068fc378daa952ba7f163c4a11628f55a4df523b3ef9061079190859061112a565b600081848411156108d85760405162461bcd60e51b815260040161056b9190611069565b505050900390565b6004546108fb826108ef610300565b9063ffffffff61092316565b11156109195760405162461bcd60e51b815260040161056b906110fa565b61053e8282610a41565b6000828201838110156103905760405162461bcd60e51b815260040161056b906110aa565b33600090815260056020908152604090912082518155910151600190910155565b61097a60038263ffffffff610b0116565b6040516001600160a01b038216907f6ae172837ea30b801fbfcdd4108aa1d5bf8ff775444fd70256b44e6bf3dfc3f690600090a250565b6109c260038263ffffffff610b4d16565b6040516001600160a01b038216907fe94479a9f7e1952cc78f2d6baab678adc1b772d936c6583def489e524cb6669290600090a250565b60006001600160a01b038216610a215760405162461bcd60e51b815260040161056b906110da565b506001600160a01b03166000908152602091909152604090205460ff1690565b6001600160a01b038216610a675760405162461bcd60e51b815260040161056b9061111a565b600254610a7a908263ffffffff61092316565b6002556001600160a01b038216600090815260208190526040902054610aa6908263ffffffff61092316565b6001600160a01b0383166000818152602081905260408082209390935591519091907fddf252ad1be2c89b69c2b068fc378daa952ba7f163c4a11628f55a4df523b3ef90610af590859061112a565b60405180910390a35050565b610b0b82826109f9565b15610b285760405162461bcd60e51b815260040161056b9061108a565b6001600160a01b0316600090815260209190915260409020805460ff19166001179055565b610b5782826109f9565b610b735760405162461bcd60e51b815260040161056b906110ca565b6001600160a01b0316600090815260209190915260409020805460ff19169055565b604051806040016040528060008152602001600081525090565b80356102fa816111d0565b80356102fa816111e4565b600060208284031215610bd757600080fd5b6000610be38484610baf565b949350505050565b60008060408385031215610bfe57600080fd5b6000610c0a8585610baf565b9250506020610c1b85828601610baf565b9150509250929050565b600080600060608486031215610c3a57600080fd5b6000610c468686610baf565b9350506020610c5786828701610baf565b9250506040610c6886828701610bba565b9150509250925092565b60008060408385031215610c8557600080fd5b6000610c918585610baf565b9250506020610c1b85828601610bba565b600060208284031215610cb457600080fd5b6000610be38484610bba565b610cc98161117b565b82525050565b610cc981611186565b6000610ce38261116e565b610ced8185611172565b9350610cfd81856020860161119a565b610d06816111c6565b9093019392505050565b6000610d1d602383611172565b7f45524332303a207472616e7366657220746f20746865207a65726f206164647281526265737360e81b602082015260400192915050565b6000610d62601f83611172565b7f526f6c65733a206163636f756e7420616c72656164792068617320726f6c6500815260200192915050565b6000610d9b602283611172565b7f45524332303a20617070726f766520746f20746865207a65726f206164647265815261737360f01b602082015260400192915050565b6000610ddf601b83611172565b7f536166654d6174683a206164646974696f6e206f766572666c6f770000000000815260200192915050565b6000610e18603083611172565b7f4d696e746572526f6c653a2063616c6c657220646f6573206e6f74206861766581526f20746865204d696e74657220726f6c6560801b602082015260400192915050565b6000610e6a602183611172565b7f526f6c65733a206163636f756e7420646f6573206e6f74206861766520726f6c8152606560f81b602082015260400192915050565b6000610ead602283611172565b7f526f6c65733a206163636f756e7420697320746865207a65726f206164647265815261737360f01b602082015260400192915050565b6000610ef1602583611172565b7f45524332303a207472616e736665722066726f6d20746865207a65726f206164815264647265737360d81b602082015260400192915050565b6000610f38601983611172565b7f45524332304361707065643a2063617020657863656564656400000000000000815260200192915050565b6000610f71602483611172565b7f45524332303a20617070726f76652066726f6d20746865207a65726f206164648152637265737360e01b602082015260400192915050565b6000610fb7601f83611172565b7f45524332303a206d696e7420746f20746865207a65726f206164647265737300815260200192915050565b80516040830190610ff4848261100d565b506020820151611007602085018261100d565b50505050565b610cc981611197565b610cc961102282611197565b611197565b60006110338285611016565b6020820191506110438284611016565b5060200192915050565b602081016102fa8284610cc0565b602081016102fa8284610ccf565b602080825281016103908184610cd8565b602080825281016102fa81610d10565b602080825281016102fa81610d55565b602080825281016102fa81610d8e565b602080825281016102fa81610dd2565b602080825281016102fa81610e0b565b602080825281016102fa81610e5d565b602080825281016102fa81610ea0565b602080825281016102fa81610ee4565b602080825281016102fa81610f2b565b602080825281016102fa81610f64565b602080825281016102fa81610faa565b602081016102fa828461100d565b60608101611146828561100d565b6103906020830184610fe3565b60408101611161828561100d565b610390602083018461100d565b5190565b90815260200190565b60006102fa8261118b565b151590565b6001600160a01b031690565b90565b60005b838110156111b557818101518382015260200161119d565b838111156110075750506000910152565b601f01601f191690565b6111d98161117b565b811461030657600080fd5b6111d98161119756fe45524332303a207472616e7366657220616d6f756e7420657863656564732062616c616e636545524332303a207472616e7366657220616d6f756e74206578636565647320616c6c6f77616e636545524332303a2064656372656173656420616c6c6f77616e63652062656c6f77207a65726fa365627a7a723158200f133f02ad6b0edcd234dda7bed1b89169454df0456966b20e23722c6e0736886c6578706572696d656e74616cf564736f6c63430005110040",
  "source": "pragma solidity ^0.5.0;\r\npragma experimental ABIEncoderV2;\r\n//import \"http://github.com/OpenZeppelin/openzeppelin-contracts/blob/master/contracts/token/ERC20/ERC20Capped.sol\";\r\nimport \"./ERC20Capped.sol\";\r\n//import \"./ERC900.sol\";\r\n\r\ncontract MoovItTest is ERC20Capped {\r\n\r\n  mapping (address => Moovr) public Moovrs;\r\n  address[] private creators;\r\n\r\n\r\n  modifier onlyOwner(){\r\n      require(msg.sender == owner);\r\n      _;\r\n  }\r\n\r\nstruct Moovr {\r\n//  uint id;\r\n  uint totalKmWalked;\r\n  uint kmWalked;\r\n  }\r\n\r\n  address owner;\r\n\r\n  constructor(string memory _name, string memory _symbol, uint8 _decimals, uint256 _cap)\r\n    ERC20Capped(_cap) public{\r\n      owner = msg.sender;\r\n    }\r\n\r\nfunction createMoovr(address creator) public {\r\n  creator = msg.sender;\r\n  Moovr memory newMoovr;\r\n//  newMoovr.id = Moovrs.length;\r\n  newMoovr.totalKmWalked = 0;\r\n\r\n  insertMoovr(newMoovr);\r\n  creators.push(msg.sender);\r\n\r\n  assert(\r\n      keccak256(\r\n          abi.encodePacked(\r\n          //    Moovr[msg.sender].id,\r\n              Moovrs[creator].totalKmWalked,\r\n              Moovrs[creator].kmWalked\r\n          )\r\n      )\r\n      ==\r\n      keccak256(\r\n          abi.encodePacked(\r\n            //  newMoovr.id,\r\n              newMoovr.totalKmWalked,\r\n              newMoovr.kmWalked\r\n          )\r\n      )\r\n  );\r\n//  emit personCreated(newPerson.name, newPerson.senior);\r\n}\r\n\r\nfunction insertMoovr(Moovr memory newMoovr) private {\r\n    address creator = msg.sender;\r\n    Moovrs[creator] = newMoovr;\r\n}\r\nfunction getMoovr() public view returns(uint totalKmWalked, Moovr memory){\r\n  //  address creator = msg.sender;\r\n    //return (totalKmWalked, Moovrs);\r\n}\r\n\r\nfunction getTotalKm(address user) public {\r\n  //return Moovr.totalKmWalked;\r\n}\r\n\r\nfunction setTotalKm() public returns(uint totalKmWalked){\r\n  address creator = msg.sender;\r\n  Moovrs[creator].totalKmWalked + Moovrs[creator].kmWalked;\r\n  return Moovrs[creator].totalKmWalked;\r\n}\r\n\r\nfunction getKm(uint256 inputKmWalked) public {\r\n  address creator = msg.sender;\r\n  Moovrs[creator].kmWalked = inputKmWalked;\r\n  _mint(msg.sender, inputKmWalked);\r\n  setTotalKm();\r\n}\r\nfunction deleteMoovr(address creator) public onlyOwner {\r\n//  uint id = Moovr[creator].id;\r\n\r\n   delete Moovrs[creator];\r\n  // emit moovrDeleted(id, creator, owner);\r\n}\r\n\r\nfunction getCreators(uint index) public view returns(address){\r\n  return creators[index];\r\n\r\n}\r\n}\r\n/*\r\ncontract MoovItStake is MoovItTest, ERC900 {\r\n\r\n  using SafeMath for uint256;\r\n\r\n  ERC20 MilkBucket;\r\n\r\n  mapping (address => MoovStake) public stakeHolders;\r\n\r\n  struct Stake {\r\n    uint256 unlockedTimestamp;\r\n    uint256 actualAmmount;\r\n    address stakedFor;\r\n  }\r\n\r\n  struct StakeContract {\r\n    uint256 totalStakedFor;\r\n    uint256 personalStakeIndex;\r\n    Stake[] personalStakes;\r\n    bool exists;\r\n  }\r\n  modifier canStake(address _address, uint256 _amount) {\r\n    require(\r\n      stakingToken.transferFrom(_address, this, _amount),\r\n      \"Stake required\");\r\n\r\n    _;\r\n  }\r\nconstructor(ERC20 _MilkBucket) public {\r\n  MilkBucket = _MilkBucket;\r\n}\r\nfunction getPersonalStakeActualAmounts(address _address) external view returns (uint256[]) {\r\n    uint256[] memory actualAmounts;\r\n    (,actualAmounts,) = getPersonalStakes(_address);\r\n\r\n    return actualAmounts;\r\n  }\r\n  function getPersonalStakeForAddresses(address _address) external view returns (address[]) {\r\n    address[] memory stakedFor;\r\n    (,,stakedFor) = getPersonalStakes(_address);\r\n\r\n    return stakedFor;\r\n  }\r\n  function stake(uint256 _amount, bytes _data) public {\r\n      createStake(\r\n        msg.sender,\r\n        _amount,\r\n        defaultLockInDuration,\r\n        _data);\r\n    }\r\n  function stakeFor(address _user, uint256 _amount, bytes _data) public {\r\n      createStake(\r\n        _user,\r\n        _amount,\r\n        defaultLockInDuration,\r\n        _data);\r\n    }\r\n  function unstake(uint256 _amount, bytes _data) public {\r\n     withdrawStake(\r\n        _amount,\r\n        _data);\r\n   }\r\n  function totalStakedFor(address _address) public view returns (uint256) {\r\n      return stakeHolders[_address].totalStakedFor;\r\n   }\r\n  function totalStaked() public view returns (uint256) {\r\n      return stakingToken.balanceOf(this);\r\n    }\r\n  function token() public view returns (address) {\r\n      return stakingToken;\r\n    }\r\n\r\n  function getPersonalStakes(\r\n      address _address\r\n      )\r\n      view\r\n      public\r\n      returns(uint256[], uint256[], address[])\r\n    {\r\n      StakeContract storage stakeContract = stakeHolders[_address];\r\n\r\n      uint256 arraySize = stakeContract.personalStakes.length - stakeContract.personalStakeIndex;\r\n      uint256[] memory unlockedTimestamps = new uint256[](arraySize);\r\n      uint256[] memory actualAmounts = new uint256[](arraySize);\r\n      address[] memory stakedFor = new address[](arraySize);\r\n\r\n      for (uint256 i = stakeContract.personalStakeIndex; i < stakeContract.personalStakes.length; i++) {\r\n        uint256 index = i - stakeContract.personalStakeIndex;\r\n        unlockedTimestamps[index] = stakeContract.personalStakes[i].unlockedTimestamp;\r\n        actualAmounts[index] = stakeContract.personalStakes[i].actualAmount;\r\n        stakedFor[index] = stakeContract.personalStakes[i].stakedFor;\r\n      }\r\n\r\n      return (\r\n        unlockedTimestamps,\r\n        actualAmounts,\r\n        stakedFor\r\n      );\r\n\r\nfunction withdrawStake(\r\n   uint256 _amount,\r\n   bytes _data\r\n )\r\n   internal\r\n {\r\n   Stake storage personalStake = stakeHolders[msg.sender].personalStakes[stakeHolders[msg.sender].personalStakeIndex];\r\n\r\n   // Check that the current stake has unlocked & matches the unstake amount\r\n   require(\r\n     personalStake.unlockedTimestamp <= block.timestamp,\r\n     \"The current stake hasn't unlocked yet\");\r\n\r\n   require(\r\n     personalStake.actualAmount == _amount,\r\n     \"The unstake amount does not match the current stake\");\r\n\r\n   // Transfer the staked tokens from this contract back to the sender\r\n   // Notice that we are using transfer instead of transferFrom here, so\r\n   //  no approval is needed beforehand.\r\n   require(\r\n     stakingToken.transfer(msg.sender, _amount),\r\n     \"Unable to withdraw stake\");\r\n\r\n   stakeHolders[personalStake.stakedFor].totalStakedFor = stakeHolders[personalStake.stakedFor]\r\n     .totalStakedFor.sub(personalStake.actualAmount);\r\n\r\n   personalStake.actualAmount = 0;\r\n   stakeHolders[msg.sender].personalStakeIndex++;\r\n\r\n   emit Unstaked(\r\n     personalStake.stakedFor,\r\n     _amount,\r\n     totalStakedFor(personalStake.stakedFor),\r\n     _data);\r\n }\r\n}\r\n*/\r\n",
  "sourcePath": "C:/Users/Jordan/Desktop/Real Website/MoovItTest/contracts/MoovItTest.sol",
  "compiler": {
    "name": "solc",
    "version": "0.5.17+commit.d19bba13.Emscripten.clang"
  },
  "schemaVersion": "3.2.5",
  "updatedAt": "2020-10-01T04:40:14.177Z",
  "networkType": "ethereum",
  "devdoc": {
    "methods": {
      "allowance(address,address)": {
        "details": "See {IERC20-allowance}."
      },
      "approve(address,uint256)": {
        "details": "See {IERC20-approve}.     * Requirements:     * - `spender` cannot be the zero address."
      },
      "balanceOf(address)": {
        "details": "See {IERC20-balanceOf}."
      },
      "cap()": {
        "details": "Returns the cap on the token's total supply."
      },
      "decreaseAllowance(address,uint256)": {
        "details": "Atomically decreases the allowance granted to `spender` by the caller.     * This is an alternative to {approve} that can be used as a mitigation for problems described in {IERC20-approve}.     * Emits an {Approval} event indicating the updated allowance.     * Requirements:     * - `spender` cannot be the zero address. - `spender` must have allowance for the caller of at least `subtractedValue`."
      },
      "increaseAllowance(address,uint256)": {
        "details": "Atomically increases the allowance granted to `spender` by the caller.     * This is an alternative to {approve} that can be used as a mitigation for problems described in {IERC20-approve}.     * Emits an {Approval} event indicating the updated allowance.     * Requirements:     * - `spender` cannot be the zero address."
      },
      "mint(address,uint256)": {
        "details": "See {ERC20-_mint}.     * Requirements:     * - the caller must have the {MinterRole}."
      },
      "totalSupply()": {
        "details": "See {IERC20-totalSupply}."
      },
      "transfer(address,uint256)": {
        "details": "See {IERC20-transfer}.     * Requirements:     * - `recipient` cannot be the zero address. - the caller must have a balance of at least `amount`."
      },
      "transferFrom(address,address,uint256)": {
        "details": "See {IERC20-transferFrom}.     * Emits an {Approval} event indicating the updated allowance. This is not required by the EIP. See the note at the beginning of {ERC20};     * Requirements: - `sender` and `recipient` cannot be the zero address. - `sender` must have a balance of at least `amount`. - the caller must have allowance for `sender`'s tokens of at least `amount`."
      }
    }
  },
  "userdoc": {
    "methods": {}
  }
}